S02100004657442054726166666963204C696768742050726F6A6563742E7372656334
S11300000C942A000C94E3010C943C000C943C00E6
S11300100C943C000C943C000C943C000C943C006C
S11300200C943C000C943C000C943C000C943C005C
S11300300C943C000C943C000C943C000C943C004C
S11300400C943C000C943C000C943C000C943C003C
S11300500C943C0011241FBECFE5D8E0DEBFCDBF19
S113006020E0A0E6B0E001C01D92A636B207E1F799
S11300700E9495020C946D040C94000060E081E4ED
S11300800E947E0261E081E40E947E0262E081E4DB
S11300900E947E0260E082E40E947E0261E082E4CB
S11300A00E947E0262E082E40E947E0262E084E4B6
S11300B00E9473020E94E2030E94F003089580915B
S11300C0600090916100019729F541E060E083E4CC
S11300D00E949C0241E060E083E40E94A20261E08D
S11300E083E40E947E0261E083E40E94840262E071
S11300F083E40E9473020E94F00361E083E40E949F
S1130100840280ED97E00E942F0461E083E40E9462
S11301108A0208950E943E00089560E081E40E94EE
S1130120840261E081E40E948A0262E081E40E9428
S11301308A0262E082E40E94840261E082E40E9416
S11301408A0260E082E40E948A0281E090E0909357
S1130150630080936200089562E081E40E94840257
S113016060E081E40E948A0261E081E40E948A02E4
S113017060E082E40E94840261E082E40E948A02D8
S113018062E082E40E948A0283E090E0909363003C
S1130190809362000895CF93DF93009709F065C0C0
S11301A06115710579F582E090E090936300809386
S11301B0620060E082E40E94840261E082E40E94C2
S11301C08A0262E082E40E948A0260E081E40E9482
S11301D08A0262E081E40E948A0261E081E40E9472
S11301E08402C0E0D0E009C080E090E00E942F04C7
S11301F061E081E40E9490022196C530D105A4F308
S113020082E0DEC06130710509F0D5C083E090E082
S1130210909363008093620062E081E40E94840210
S113022061E081E40E948A0260E081E40E948A0223
S113023060E082E40E948A0262E082E40E948A0210
S113024061E082E40E948402C0E0D0E009C080E062
S113025090E00E942F0461E082E40E9490022196C3
S1130260C530D105A4F382E0ABC0019709F0A5C065
S11302706115710579F582E090E0909363008093B5
S1130280620060E082E40E94840261E082E40E94F1
S11302908A0262E082E40E948A0260E081E40E94B1
S11302A08A0262E081E40E948A0261E081E40E94A1
S11302B08402C0E0D0E009C081E090E00E944704DD
S11302C061E081E40E9490022196CB30D105A4F331
S11302D082E076C06130710579F583E090E0909317
S11302E063008093620062E081E40E94840261E022
S11302F081E40E948A0260E081E40E948A0260E054
S113030082E40E948A0262E082E40E948A0261E03E
S113031082E40E948402C0E0D0E009C081E090E061
S11303200E94470461E082E40E9490022196CB304F
S1130330D105A4F382E044C06230710509F03FC0E6
S113034083E090E0909363008093620061E081E435
S11303500E94840262E081E40E948A0260E081E4F7
S11303600E948A0260E082E40E948A0262E082E4DF
S11303700E948A0261E082E40E948402C0E0D0E02C
S11303800DC081E090E00E94470461E082E40E9495
S1130390900261E081E40E9490022196CB30D10565
S11303A084F361E081E40E948A0261E082E40E94B5
S11303B08A0282E005C081E003C080E001C081E0E0
S11303C0DF91CF9108951F920F920FB60F921124CF
S11303D02F933F934F935F936F937F938F939F9349
S11303E0AF93BF93EF93FF938BB78F7B8BBF8091BA
S11303F06200909163008230910519F00397A1F097
S113040027C062E070E081E090E00E94CB000E948F
S11304108D0080E090E00E94470460E070E081E09D
S113042090E00E94CB0014C061E070E081E090E0B5
S11304300E94CB000E948D0080E090E00E9447045F
S113044060E070E081E090E00E94CB000E94AC008C
S11304500E94E2038AB780648ABFFF91EF91BF9143
S1130460AF919F918F917F916F915F914F913F9148
S11304702F910F900FBE0F901F9018950E948D0022
S113048080ED97E00E942F0460E070E080E090E04F
S11304900E94CB000E94AC0080ED97E00E942F04E4
S11304A00895CF93DF931F92CDB7DEB7809160009C
S11304B0909161000197A1F481E090E00E944704CB
S11304C01982AE014F5F5F4F62E083E40E947902BC
S11304D08981813059F761E083E40E949002E6CF7C
S11304E00E943E02E3CF40E00E949C02809364009D
S11304F008950E94730380936400089541E00E946C
S11305009C0280936500089541E00E94A2028093BA
S11305106500089540E00E94A2028093650008955A
S11305200E9432038093650008950E945F000E9438
S1130530510280E090E00895683010F080E0089562
S113054082E00895683008F081C0823441F118F4E3
S1130550813441F07DC0833409F43EC0843409F40D
S113056058C076C0413061F42BB381E090E002C002
S1130570880F991F6A95E2F7822B8BBB83E008955D
S1130580411168C02BB381E090E002C0880F991F2D
S11305906A95E2F7809582238BBB83E0089541300E
S11305A061F428B381E090E002C0880F991F6A9536
S11305B0E2F7822B88BB83E0089541114DC028B334
S11305C081E090E002C0880F991F6A95E2F7809558
S11305D0822388BB83E00895413061F425B381E030
S11305E090E002C0880F991F6A95E2F7822B85BBC1
S11305F083E00895411132C025B381E090E002C048
S1130600880F991F6A95E2F78095822385BB83E062
S11306100895413061F422B381E090E002C0880F74
S1130620991F6A95E2F7822B82BB83E008954111FA
S113063017C022B381E090E002C0880F991F6A9529
S1130640E2F78095822382BB83E0089580E00895D9
S113065081E0089583E0089583E0089583E0089598
S113066083E008956830D8F58234A9F018F4813411
S113067031F037C08334D9F0843429F132C02BB33C
S113068081E090E002C0880F991F6A95E2F7822703
S11306908BBB83E0089528B381E090E002C0880F0B
S11306A0991F6A95E2F7822788BB83E0089525B3F2
S11306B081E090E002C0880F991F6A95E2F78227D3
S11306C085BB83E0089522B381E090E002C0880FE7
S11306D0991F6A95E2F7822782BB83E0089580E040
S11306E0089581E00895683008F068C0823409F103
S11306F018F4813439F064C0833491F1843409F4FA
S113070046C05EC079B381E090E09C01062E02C031
S1130710220F331F0A94E2F7872F90E0822393235A
S113072002C0959587956A95E2F7FA01808383E084
S1130730089576B381E090E09C01062E02C0220F5A
S1130740331F0A94E2F7872F90E08223932302C099
S1130750959587956A95E2F7FA01808383E0089579
S113076073B381E090E09C01062E02C0220F331F78
S11307700A94E2F7872F90E08223932302C0959591
S113078087956A95E2F7FA01808383E0089570B350
S113079081E090E09C01062E02C0220F331F0A94D0
S11307A0E2F7872F90E08223932302C095958795E3
S11307B06A95E2F7FA01808383E0089580E0089562
S11307C081E00895789485B7816085BF85B782609C
S11307D085BF8BB780648BBF8FB780688FBF089548
S11307E013BE12BE81E08EBD089580349105B9F028
S11307F030F48130910559F0089769F016C08115DD
S113080021E09207A9F081159440B1F00EC083B79E
S1130810816083BF0AC083B7826083BF06C083B789
S1130820816083BF83B7826083BF20E030E013C060
S113083083B7846083BFF9CF83B7816083BF83B7F5
S1130840846083BFF2CF08B600FEFDCF88B7816015
S113085088BF2F5F3F4F26173707A8F30895803DC1
S113086027E0920741F46DE470E080E091E00E949B
S1130870F50381E00895892B41F46FE070E080E096
S113088091E00E94F50381E0089580E008951EBC84
S11308908130910571F481EE8DBD8CE78CBD88B7F4
S11308A0846088BF8EB582608EBD8EB581608EBD3A
S11308B00CC0892B81F483EB8DBD85EB8CBD88B78F
S11308C0846088BF8EB584608EBD08B602FEFDCFFD
S11108D01EBC81E0089580E00895F894FFCFE7
S9030000FC
