S02100004657442054726166666963204C696768742050726F6A6563742E7372656334
S11300000C942A000C94D2010C943C000C943C00F7
S11300100C943C000C943C000C943C000C943C006C
S11300200C943C000C943C000C943C000C943C005C
S11300300C943C000C943C000C943C000C943C004C
S11300400C943C000C943C000C943C000C943C003C
S11300500C943C0011241FBECFE5D8E0DEBFCDBF19
S113006020E0A0E6B0E001C01D92A436B207E1F79B
S11300700E942D020C948F040C94000060E081E433
S11300800E94C30161E081E40E94C30162E081E453
S11300900E94C30160E082E40E94C30161E082E443
S11300A00E94C30162E082E40E94C30162E084E42E
S11300B00E94BC010E9407040E941504089560E098
S11300C081E40E94C70161E081E40E94CB0162E007
S11300D081E40E94CB0162E082E40E94C70161E0F6
S11300E082E40E94CB0160E082E40E94CB0181E0C3
S11300F090E09093610080936000089562E081E451
S11301000E94C70160E081E40E94CB0161E081E4C8
S11301100E94CB0160E082E40E94C70161E082E4B6
S11301200E94CB0162E082E40E94CB0183E090E074
S113013090936100809360000895CF93DF930097BC
S113014009F063C06115710571F582E090E0909348
S113015061008093600060E082E40E94C70161E076
S113016082E40E94CB0162E082E40E94CB0160E061
S113017081E40E94CB0162E081E40E94CB0161E052
S113018081E40E94C701C0E0D0E009C080E090E0B3
S11301900E94560461E081E40E94CF012196C5309B
S11301A0D105A4F3D3C06130710509F0CFC083E059
S11301B090E0909361008093600062E081E40E948B
S11301C0C70161E081E40E94CB0160E081E40E9408
S11301D0CB0160E082E40E94CB0162E082E40E94F1
S11301E0CB0161E082E40E94C701C0E0D0E009C015
S11301F080E090E00E94560461E082E40E94CF0116
S11302002196C530D105A4F3A1C0019709F09EC081
S11302106115710571F582E090E09093610080931F
S1130220600060E082E40E94C70161E082E40E9411
S1130230CB0162E082E40E94CB0160E081E40E9491
S1130240CB0162E081E40E94CB0161E081E40E9481
S1130250C701C0E0D0E009C081E090E00E946C04D6
S113026061E081E40E94CF012196CB30D105A4F353
S11302706DC06130710571F583E090E09093610089
S11302808093600062E081E40E94C70161E081E440
S11302900E94CB0160E081E40E94CB0160E082E433
S11302A00E94CB0162E082E40E94CB0161E082E41F
S11302B00E94C701C0E0D0E009C081E090E00E9444
S11302C06C0461E082E40E94CF012196CB30D10519
S11302D0A4F33CC062307105C9F583E090E09093CB
S11302E061008093600061E081E40E94C70162E0E4
S11302F081E40E94CB0160E081E40E94CB0160E0D4
S113030082E40E94CB0162E082E40E94CB0161E0BE
S113031082E40E94C701C0E0D0E00DC081E090E01B
S11303200E946C0461E082E40E94CF0161E081E4F8
S11303300E94CF012196CB30D10584F361E081E4A2
S11303400E94CB0161E082E40E94CB01DF91CF9156
S113035008950E945F0080ED97E00E94560460E0DB
S113036070E080E090E00E949D000E947E0080ED9D
S113037097E00E945604089540E00E947C0208958C
S11303800E94A303089541E00E947C02089541E085
S11303900E94F402089540E00E94F40208950E942D
S11303A06C0308951F920F920FB60F9211242F938E
S11303B03F934F935F936F937F938F939F93AF93E9
S11303C0BF93EF93FF938BB78F7B8BBF80916000BC
S11303D0909161008230910519F00397A1F027C034
S11303E062E070E081E090E00E949D000E945F0066
S11303F080E090E00E946C0460E070E081E090E0B6
S11304000E949D0014C061E070E081E090E00E94D1
S11304109D000E945F0080E090E00E946C0460E018
S113042070E081E090E00E949D000E947E000E94A6
S113043007048AB780648ABFFF91EF91BF91AF919F
S11304409F918F917F916F915F914F913F912F91E8
S11304500F900FBE0F901F901895CF93DF931F92AC
S1130460CDB7DEB78091620090916300019729F5C2
S113047041E060E083E40E947C0241E060E083E4C8
S11304800E94F40261E083E40E94C30161E083E41A
S11304900E94C70162E083E40E94BC010E9415042B
S11304A061E083E40E94C70180ED97E00E94560456
S11304B061E083E40E94CB0102C00E943E0080916F
S11304C06200909163000197A1F481E090E00E94A2
S11304D06C041982AE014F5F5F4F62E083E40E94B7
S11304E0C0018981813059F761E083E40E94CF0122
S11304F0E6CF0E94A901E3CF823429F118F48134B4
S113050039F008958334D1F1843409F452C0089544
S1130510413059F42AB381E090E002C0880F991F5A
S11305206A95E2F7822B8ABB089541115CC02AB315
S113053081E090E002C0880F991F6A95E2F78095E8
S113054082238ABB0895413059F427B381E090E0B7
S113055002C0880F991F6A95E2F7822B87BB089522
S1130560411141C027B381E090E002C0880F991F78
S11305706A95E2F78095822387BB0895413059F448
S113058024B381E090E002C0880F991F6A95E2F7D6
S1130590822B84BB0895411126C024B381E090E0EE
S11305A002C0880F991F6A95E2F78095822384BB65
S11305B00895413059F421B381E090E002C0880FDE
S11305C0991F6A95E2F7822B81BB089541110BC0F4
S11305D021B381E090E002C0880F991F6A95E2F789
S11305E08095822381BB0895823429F118F48134E3
S11305F039F008958334D1F1843409F452C0089554
S1130600413059F42BB381E090E002C0880F991F68
S11306106A95E2F7822B8BBB089541115CC02BB322
S113062081E090E002C0880F991F6A95E2F78095F7
S113063082238BBB0895413059F428B381E090E0C4
S113064002C0880F991F6A95E2F7822B88BB089530
S1130650411141C028B381E090E002C0880F991F86
S11306606A95E2F78095822388BB0895413059F456
S113067025B381E090E002C0880F991F6A95E2F7E4
S1130680822B85BB0895411126C025B381E090E0FB
S113069002C0880F991F6A95E2F78095822385BB73
S11306A00895413059F422B381E090E002C0880FEC
S11306B0991F6A95E2F7822B82BB089541110BC002
S11306C022B381E090E002C0880F991F6A95E2F797
S11306D08095822382BB08958234A1F018F481347A
S11306E031F008958334C9F0843411F108952BB3A3
S11306F081E090E002C0880F991F6A95E2F7822793
S11307008BBB089528B381E090E002C0880F991F45
S11307106A95E2F7822788BB089525B381E090E0CB
S113072002C0880F991F6A95E2F7822785BB089556
S113073022B381E090E002C0880F991F6A95E2F726
S1130740822782BB0895823401F118F4813439F090
S11307500895833481F1843409F443C0089579B34E
S113076081E090E09C01062E02C0220F331F0A9400
S1130770E2F7872F90E08223932302C09595879513
S11307806A95E2F7FA018083089576B381E090E0F8
S11307909C01062E02C0220F331F0A94E2F7872F12
S11307A090E08223932302C0959587956A95E2F79A
S11307B0FA018083089573B381E090E09C01062ED2
S11307C002C0220F331F0A94E2F7872F90E082239E
S11307D0932302C0959587956A95E2F7FA01808381
S11307E0089570B381E090E09C01062E02C0220FB0
S11307F0331F0A94E2F7872F90E08223932302C0E9
S1130800959587956A95E2F7FA018083089578941F
S113081085B7816085BF85B7826085BF8BB78064EB
S11308208BBF8FB780688FBF089513BE12BE81E05F
S11308308EBD089580349105B9F030F4813091056E
S113084059F0089769F016C0811521E09207A9F0C4
S113085081159440B1F00EC083B7816083BF0AC094
S113086083B7826083BF06C083B7816083BF83B7C9
S1130870826083BF20E030E013C083B7846083BF0D
S1130880F9CF83B7816083BF83B7846083BFF2CF1E
S113089008B600FEFDCF88B7816088BF2F5F3F4F49
S11308A026173707A8F3089513BE0895803D27E05F
S11308B0920739F46DE470E080E091E00E941A043C
S11308C008C0892B31F46FE070E080E091E00E9471
S11308D01A040E94540408951EBC8130910571F4D9
S11308E081EE8DBD8CE78CBD88B7846088BF8EB5E2
S11308F082608EBD8EB581608EBD0CC0892B51F493
S113090083EB8DBD85EB8CBD88B7846088BF8EB5C5
S113091084608EBD08B602FEFDCF1EBC0895F89417
S1050920FFCF03
S9030000FC
